:1000000000308A000428000003081F398300FF30F5
:10001000A000A01520088316870083122016200850
:1000200083168700223093003630831294008316A3
:10003000111491171F149F141F159F1107309C0056
:10004000831383122011200883168700831207115F
:100050000C3097000030F80006389200FF3083160D
:1000600092008312A1018316141C582883121413C2
:100070008316141C3928831213081416A100A30137
:100080002108A200A20DA30DA20DA30DFC30A20514
:10009000A30CA20CA30CA20CA30C22089500A30C89
:1000A000230C3039F7001708CF39770497008316EF
:0400B000342863008D
:02400E00713F00
:00000001FF
;PIC16F877A
;CRC=B2CF  CREATED="10-nov.-24 18:09"
