:1000000000308A0094280000FF00030E8301A10045
:100010000A08A0008A010408A2007708A300780853
:10002000A4007908A5007A08A600831383128C30F7
:100030008400801D1D288C192E2822088400230886
:10004000F7002408F8002508F9002608FA0020081F
:100050008A00210E8300FF0E7F0E09008A110A120A
:100060004A28831605108312051083168510831203
:1000700085108316051183120511831686138312CA
:1000800086138316061383120613831686128312B1
:100090008612080014138316141C4C2883121308AC
:1000A0001416A8002808A90031202908413A03198C
:1000B0006328033A03196C28013A03197928073A8F
:1000C000031982288F2883160510831205148316BE
:1000D0008612831286169028831685108312851443
:1000E000831686128312861683160613831206174A
:1000F0009028831605118312051583168613831223
:10010000861790288316051183120515831685100E
:100110008312851483160613831206179028312044
:100120008C118A110A121D2803081F398300FF3021
:10013000A700A7152708831687008312271627080C
:100140008316870022309300363083129400831682
:10015000111491171F149F141F159F1107309C0035
:0E01600083138C15C03083128B04B528630006
:02400E00713F00
:00000001FF
;PIC16F877A
;CRC=9A18  CREATED="17-nov.-24 18:32"
